:020000040800F2
:10000000A007002025150008F1060008F3060008E7
:10001000F7060008FB060008FF06000800000000C5
:1000200000000000000000000000000003070008BE
:10003000050700080000000007070008090700087E
:100040003F1500083F1500083F1500083F15000840
:100050003F1500083F1500083F1500083F15000830
:100060003F1500083F1500083F1500083F15000820
:100070003F1500083F1500083F1500083F15000810
:100080003F1500083F1500083F1500083F15000800
:100090003F1500083F1500083F1500083F150008F0
:1000A0003F1500083F1500083F1500083F150008E0
:1000B0007F0B00083F150008390C00083F150008A9
:1000C0003F1500083F1500083F1500083F150008C0
:1000D0003F1500089B1400083F1500083F15000855
:1000E0003F1500083F1500083F1500083F150008A0
:1000F0003F1500083F1500083F1500083F15000890
:100100003F1500083F1500083F1500083F1500087F
:100110003F1500083F1500083F1500083F1500086F
:100120003F1500083F1500083F1500083F1500085F
:1001300000F002F800F03FF80AA090E8000C8244BA
:100140008344AAF10107DA4501D100F034F8AFF297
:10015000090EBAE80F0013F0010F18BFFB1A43F0A5
:1001600001031847E433000004340000103A24BFB0
:1001700078C878C1FAD8520724BF30C830C144BF0C
:1001800004680C607047000000230024002500264E
:10019000103A28BF78C1FBD8520728BF30C148BFEA
:1001A0000B607047642903F0A580002070471FB5DD
:1001B0001FBD10B510BD03F097F91146FFF7F7FF0B
:1001C00000F008F803F0B5F903B4FFF7F2FF03BC41
:1001D00001F008F99AB0F3A30FCBCDE91823CDE9CC
:1001E00016011422F3A111A803F0C0F81822F6A1F9
:1001F0000BA803F0BBF81422F9A106A803F0B6F887
:100200001422FCA101A803F0B1F800BF0120FE49AF
:10021000086002208DF8000000F0A1FD00F080FDD4
:100220004FF4A06001F022FF01F072F84FF4165075
:1002300001F0E7F800F070FF47214FF6FF7000F083
:1002400002FC47214FF6FF7000F04CFC00F0D2FE9C
:10025000EE49087008460078012803D1ECA003F0AD
:1002600009F802E0EEA003F005F83DE200F06BFEB5
:10027000F04800F00FFFE549087008460078402874
:100280006AD10020EC490870EA480978405C3030B7
:10029000C0B28DF85C00E749E7480078801C085C34
:1002A0000A2190FBF1F03030C0B28DF82600E14910
:1002B000E1480078801C085C0A2190FBF1F201FB08
:1002C00012003030C0B28DF82700DA49DA480078E1
:1002D000C01C085C0A2190FBF1F03030C0B28DF8F0
:1002E0001200D449D4480078C01C085C0A2190FB55
:1002F000F1F201FB12003030C0B28DF8130000F0B3
:1003000049FE16A800F098FEC0490870C949CA48BD
:100310000078401C085C012805D111A800F08CFE73
:10032000BA4908700AE0C349C3480078401C085C19
:1003300020B90BA800F080FEB449087006A800F0B0
:100340007BFEB2490870282001F01FF801A800F0D8
:1003500073FEAE49087002E0B8A002F08BFF0020E7
:10036000B549087000F016FEB34909781DF8010080
:100370003030C0B28DF85C00AF480078801C1DF8AA
:1003800000000A2190FBF1F03030C0B28DF8260059
:10039000A9480078801C1DF8000090FBF1F201FBD9
:1003A00012003030C0B28DF82700A3480078C01C7E
:1003B0001DF8000090FBF1F03030C0B28DF8120053
:1003C0009D480078C01C1DF8000090FBF1F201FB75
:1003D00012003030C0B28DF8130016A800F02CFEC9
:1003E0008A49087094480078401C1DF800000128D4
:1003F00005D111A800F020FE844908700AE08E485B
:100400000078401C1DF8000020B90BA800F014FE75
:100410007E49087006A800F00FFE7C490870322063
:1004200000F0B3FF01A800F007FE78490870084605
:10043000007840B1102802D020280CD107E086A017
:1004400002F018FF07E088A002F014FF03E08AA082
:1004500002F010FF00BF00BF00F018FF8A480078CC
:100460008DF80300884880788DF8020001218748C4
:1004700001F085F9142000F064FF0121834801F0A8
:1004800080F90A2000F081FF8148007800F08000A8
:1004900068B37F48007800F03F0424047D4800885A
:1004A000044460084FF4AC71484342F21071B0FB51
:1004B000F1F50A2D0CD278A002F0DCFE0421794877
:1004C00001F05FF90120784908708DF801000BE018
:1004D00076A002F0CFFE0421724801F050F900200E
:1004E000714908708DF801000020694908700221E7
:1004F000664801F044F9142000F023FF022163480C
:1005000001F03FF90A2000F040FF6B48007800F04E
:100510008000002844D06848007800F03F0424049C
:1005200066480088044460084FF4AC71484342F2C6
:100530001071B0FBF1F5294661A002F09BFE322D4F
:100540002CD261A002F096FE5748007810B93720EF
:1005500000F0E8F94FF47A7000F017FF4FF47A706A
:1005600000F013FF002028490860642000F00DFF10
:1005700001205B49C1F8A4014FF47A7000F005FF37
:100580004FF47A7000F001FF4FF47A7000F0FDFE36
:100590004548007810B9282000F0A8F90020A1E013
:1005A000A2E000000E4E6F2E3054726173686361DA
:1005B0006E3A0A00104761726261676520697320B4
:1005C00066756C6C0A0000001447617262616765B1
:1005D000206973206E6F742066756C6C0A000000D1
:1005E0001154656D70657261747572653A202020D2
:1005F000430A00001148756D69646974793A2020D6
:1006000020202020250A0000A40121420200002011
:100610000D0AC1ACBDD3B3C9B9A621210D0A000092
:100620000D0AC1ACBDD3CAA7B0DCA3A1A3A10D0A1A
:100630000000000003000020070000200D0A20CE6B
:10064000B4CAD5B5BDC9CFD2BBB8F6B5C4D0C5CF35
:10065000A2200D0A000000000D0A206F766572745A
:10066000696D6521200D0A000D0A206572726F7296
:10067000A3A1200D0A0000000D0A20B7A2CBCDB324
:10068000C9B9A6200D0A00003E000020000C014060
:100690002C0000202E000020733C31302121210A43
:1006A000000000000014014000000020733E3130C3
:1006B0002121210A0000000030000020320000202B
:1006C00025642121210A000020736F6D656F6E651E
:1006D00020697320636F6D696E67A3A1A3A10A00EF
:1006E0000000214201490870C0E5000030000020F0
:1006F000704700BFFEE700BFFEE700BFFEE700BF98
:10070000FEE7704770477047704700000CB5002047
:10071000019000906C48006840F480306A4908609D
:1007200000BF6948006800F4003000900198401C48
:100730000190009818B90198B0F5A06FF1D1624806
:10074000006800F4003010B10120009001E00020AA
:1007500000900098012843D15C48006840F01000E8
:100760005A4908600846006820F0030008600846FF
:10077000006840F0020008605348406852494860F1
:100780000846406848600846406840F48060486019
:100790000846406820F47C1048600846406840F4F1
:1007A000E81048600846006840F08070086000BFAC
:1007B0004548006800F000700028F9D042484068C1
:1007C00020F00300404948600846406840F00200BD
:1007D000486000BF3C48406800F00C000828F9D190
:1007E0000CBD10B5FFF792FF10BD10B5364800687C
:1007F00040F0010034490860084640683449084028
:100800003149486008460068324908402E4908606E
:100810000846006820F4802008600846406820F4FC
:10082000FE0048604FF41F008860FFF7DAFF4FF0CA
:1008300000602949086010BD10B500210020002289
:10084000214B5B6803F00C0121B1042906D0082973
:1008500028D107E0214B224C236027E01F4B204C7E
:10086000236023E0184B5B6803F47010164B5B6841
:1008700003F48032022303EB904022B9194B434327
:10088000174C23600DE0104B5B6803F4003323B179
:10089000144B4343124C236003E0104B4343104C72
:1008A000236003E00D4B0E4C236000BF00BF064BDE
:1008B0005B68C3F303130C4CE15C094B1B68CB4032
:1008C000074C236010BD00000010024000200240D1
:1008D0000000FFF8FFFFF6FE08ED00E000127A00CE
:1008E0000800002000093D000C00002070B50546FE
:1008F000002614E000240CE0FC48005D4FF6FF7277
:1009000002EA0031FA4800F043FF012000F03DFD0B
:10091000641C082CF0D3012000F037FD761CAE4299
:10092000E8D970BD70B50546002614E000240CE03F
:10093000F048005D4FF6FF7202EA0031EC4800F02B
:1009400027FF012000F021FD641C082CF0D30120BA
:1009500000F01BFD761CAE42E8D970BD7FB50546A0
:100960000C460121022001F026F9ADF80850ADF83F
:1009700004400020ADF80A00ADF8060001A9DE48E9
:1009800001F0B6FC01221146DB4802F028F81D20D8
:100990008DF8000000208DF8010003208DF8020082
:1009A00001208DF80300684601F065FB0121D24863
:1009B00001F0FAFF7FBD30B589B005460C46012134
:1009C000C80201F0EBF80121042001F0E7F84FF430
:1009D0008070ADF8200018208DF8230003208DF8DA
:1009E000220008A9C54800F01DFEADF81850ADF86A
:1009F00014400020ADF81A00ADF8160005A9C04853
:100A000001F076FC7020ADF804000120ADF806007E
:100A10000020ADF80A00ADF80C0001A9B84801F0BB
:100A2000A4FC0121B64801F0CBFF0821B44802F034
:100A3000EBF80121B24802F0B7F80121B04801F00B
:100A4000B3FF09B030BD30B585B005460C46012175
:100A5000084601F0B0F80121042001F09FF80120C0
:100A6000ADF8100028208DF8130004A9A34800F069
:100A7000D9FD0121A14800F084FEADF80850ADF881
:100A800004400020ADF80A00ADF8060001A94FF0BF
:100A9000804001F02DFC00209A4908804880012008
:100AA00088800020C88008814FF0804001F0B3FEAC
:100AB0001C208DF8000002208DF8010000208DF828
:100AC000020001208DF80300684601F0D4FA0122EB
:100AD0000321900701F083FF0121880701F064FFE3
:100AE00005B030BD30B585B005460C460121042067
:100AF00001F061F80121082001F050F84020ADF824
:100B0000100028208DF8130004A9794800F08AFD10
:100B10004021774800F035FEADF80850ADF80440AC
:100B20000020ADF80A00ADF8060001A9764801F0F2
:100B3000DFFB002075490880488001208880002064
:100B4000C8800881704801F066FE1E208DF8000004
:100B500002208DF8010000208DF8020001208DF8A0
:100B60000300684601F087FA01220321664801F07C
:100B700036FF0121644801F017FF05B030BD10B504
:100B80006348007800F0800000284FD101218807D9
:100B900002F0D3F9D0B15E48007800F04000A8B16F
:100BA0005B48007800F03F003F280AD158480078A1
:100BB00040F08000564908704FF6FF705549088094
:100BC00004E053480078401C51490870022148074E
:100BD00002F0B3F950B34E48007800F0400088B1FD
:100BE0004B48007840F08000494908704FF0804041
:100BF00002F084F94749088000214FF0804002F05C
:100C000085F813E00020424908704249088000211D
:100C10004FF0804002F05CF93D48007840F0400021
:100C20003B4908700221480702F070F803214FF099
:100C3000804002F093F910BD10B53748007800F0FD
:100C4000800000284CD101212F4802F076F9D0B164
:100C50003148007800F04000A8B12F48007800F03B
:100C60003F003F280AD12C48007840F080002A49F4
:100C700008704FF6FF702949088004E02648007884
:100C8000401C2549087002211F4802F056F938B36C
:100C90002148007800F0400078B11F48007840F00B
:100CA00080001D490870184802F028F91B49088087
:100CB0000021154802F02AF812E0002016490870B9
:100CC000164908800021104802F002F91248007805
:100CD00040F040001049087002210B4802F016F85D
:100CE0000321094802F03AF910BD00001C00002061
:100CF000000C0140240000200004004000080140D6
:100D0000002C014064000020000800406E0000201C
:100D10002C0000202E000020300000203200002097
:100D200008B50121082000F039FF10208DF80300DC
:100D300003208DF802004FF47040ADF800006946C2
:100D4000014800F06FFC08BD000C014001B502E055
:100D50000098401E009000980028F9D108BD00B509
:100D600087B001214FF48A7000F018FF01210803B9
:100D700000F014FFE020ADF8040001208DF806001B
:100D800018208DF8070001A9DC4800F04BFC10206A
:100D9000ADF8040001208DF8060010208DF8070042
:100DA00001A9D64800F03EFC1020ADF80400012057
:100DB0008DF8060010208DF8070001A9D04800F03A
:100DC00031FC0220ADF8040001208DF80600482017
:100DD0008DF8070001A9C94800F024FC1021C8487B
:100DE00000F0CDFC0020ADF808004FF48270ADF8A3
:100DF0000A000020ADF80C00ADF80E00ADF81000B0
:100E00004FF40070ADF812001020ADF8140000206F
:100E1000ADF816000720ADF8180002A9B94802F095
:100E2000C7F80121B74802F068F907B000BD10B556
:100E3000044600BF0221B34802F0E3F90028F9D0CC
:100E40002146B04802F08AF900BF0121AD4802F006
:100E5000D8F90028F9D0AB4802F082F9C0B210BD31
:100E600070B505460C461021A44800F08AFC1021FC
:100E7000A34800F086FC2846FFF7D9FF0646204627
:100E8000FFF7D5FF10219E4800F079FC304670BD79
:100E900070B504461021994800F073FC1021984861
:100EA00000F06FFC2046FFF7C2FFFF20FFF7BFFFF7
:100EB00005461021924800F062FC284670BD2DE9DD
:100EC000F04107460D46164610218C4800F059FCAB
:100ED00010218B4800F055FC3846FFF7A8FF8046EC
:100EE000002405E0FF20FFF7A2FF2855601CC4B2D4
:100EF000B442F7DB1021824800F041FC4046BDE8D7
:100F0000F0812DE9F04107460C46154610217B483B
:100F100000F037FC10217A4800F033FC3846FFF728
:100F200086FF8046002605E014F8010BFFF77FFFDF
:100F3000701CC6B2AE42F7DB1021714800F01FFCF6
:100F40004046BDE8F08110B510216C4800F019FC56
:100F500005226D492A20FFF7D4FF01212120FFF748
:100F60007FFF01212220FFF77BFF28212520FFF7AB
:100F700077FF20213120FFF773FF0F212620FFF795
:100F80006FFF0F212020FFF76BFF10215B4800F05F
:100F9000F6FB10BD10B51021584800F0F2FB0522F9
:100FA0005A493020FFF7ADFF052257492A20FFF7A5
:100FB000A8FF01212120FFF753FF01212220FFF785
:100FC0004FFF1A212420FFF74BFF28212520FFF790
:100FD00047FF0F212620FFF743FF0E212020FFF7B8
:100FE0003FFF1021454800F0CAFB4FF6FF70FFF7A6
:100FF000ADFE10BD1FB546A103C9CDE90201052212
:1010000002A93020FFF77DFF052269461020FFF777
:1010100056FF002406E01DF80400C22800D003E0BB
:10102000601CC4B2052CF6DB00BF052C02D10120E8
:1010300004B010BD0020FBE770B5054610212F4815
:1010400000F09FFB20222946A020FFF75AFF102125
:101050002A4800F094FB00BF0221284800F075FBED
:101060000028F9D10720FFF713FF04462146272067
:10107000FFF7F6FEFF21E120FFF7F2FE04F010007B
:1010800008B1102070BD04F0200008B12020F9E75D
:101090000020F7E770B505461021184800F06FFBF7
:1010A00009E041F2883000F070F90221134800F0A5
:1010B0004CFB00B105E00221104800F046FB00287F
:1010C000EFD100BF10210D4800F05BFB0720FFF7B8
:1010D000DFFE044621462720FFF7C2FE04F0400051
:1010E00050B1202229466120FFF7E9FEFF21E220CE
:1010F000FFF7B6FE402070BD0020FCE7000801406D
:101100000010014000300140390000203400002070
:10111000C2C2C2C2C200000008B501212C2000F0EA
:101120003DFD4FF48070ADF8000010208DF80300F5
:1011300003208DF802006946144800F073FA4FF45A
:101140008071124800F01BFB0420ADF800006946D6
:101150000F4800F067FA04210D4800F010FB012051
:10116000ADF8000069460B4800F05CFA012109481F
:1011700000F005FB0220ADF800006946054800F0CC
:1011800051FA0221034800F0FAFA08BD00080140B4
:1011900000140140000C014008B50420ADF8000027
:1011A00003208DF8020004208DF8030069465248A0
:1011B00000F038FA08BD08B50420ADF8000003209F
:1011C0008DF8020010208DF8030069464A4800F0AF
:1011D00029FA08BD10B5FFF7EEFF00204749086067
:1011E000122000F0D2F801204549C1F888011920E9
:1011F00000F0A7F8FFF7D0FF40488038006868B9D2
:1012000000BF3E48803800680028FAD000BF3B4845
:10121000803800680028FAD1012010BD0020FCE7CA
:1012200070B5002500242EE0364800784006000EF8
:1012300034490870142000F084F800BF2F4880382B
:1012400000680028FAD0192000F07BF8642500BF60
:10125000280005F10101CDB2FAD128488038006894
:1012600048B12848007840F00100264908701E2047
:1012700000F067F805E02348007800F0FE002149FF
:101280000870601CC4B2082CCEDB70BD10B5FFF72F
:10129000A1FF48B3FFF7C4FF1A4800781A49087045
:1012A000FFF7BEFF1748007817494870FFF7B8FFEF
:1012B0001448007814498870FFF7B2FF114800788D
:1012C0001149C870FFF7ACFF0E4800780F4908704D
:1012D0000D4800780C49497808440B49897808443E
:1012E0000949C9780844C4B208480078A04201D12D
:1012F000012010BD0020FCE70008014088012142C8
:1013000000002142420000203E0000204300002057
:1013100010B56FF0040000F0F8FE2E4800682E496A
:10132000B0FBF1F02D4908700846007800EB400151
:10133000C1EBC0104FF6FF7101EAC00028490880D8
:1013400010BD0146254A12784A434FF0E0235A6106
:1013500000229A611A46126942F001021A6100BF26
:101360004FF0E022106900F001021AB100F480325F
:10137000002AF5D04FF0E022126922F001024FF06E
:10138000E0231A6100229A6170470146144A1288CC
:101390004A434FF0E0235A6100229A611A461269CB
:1013A00042F001021A6100BF4FF0E022106900F024
:1013B00001021AB100F48032002AF5D04FF0E02289
:1013C000126922F001024FF0E0231A6100229A61B3
:1013D000704700000800002000127A00440000203E
:1013E00046000020014600BF704700BF494A1288EE
:1013F00002F04002002AF9D0C2B2464B1B1D1A80EF
:10140000704710B586B00446012144F2040000F094
:10141000C5FB4FF40070ADF8140003208DF81600E2
:1014200018208DF8170005A93B4800F0FBF84FF491
:101430008060ADF8140004208DF8170005A9364827
:1014400000F0F0F825208DF8000003208DF8010051
:101450008DF8020001208DF80300684600F00BFEB5
:1014600001940020ADF80800ADF80A00ADF80C00BA
:10147000ADF810000C20ADF80E0001A9254800F0D1
:1014800034FC012240F22551224800F0C6FC012123
:10149000204800F0B6FC06B010BD10B540F2255152
:1014A0001C4800F09FFD10B31A4800F01BFDC4B2A9
:1014B0001A48008800F40040C8B91848008800F4B1
:1014C000804060B10A2C03D000201449088020E03D
:1014D0001248008840F400401049088019E00D2CA3
:1014E00006D10E48008840F480400C49088010E086
:1014F0000A480088C0F30D0009490C5407480088C9
:10150000401C0649088008460088C72801DD0020E5
:10151000088010BD00380140000801404C00002048
:10152000780000200948804709480047FEE7FEE7A9
:10153000FEE7FEE7FEE7FEE7FEE7FEE7FEE7FEE783
:1015400004480549054A064B70470000EB070008B0
:1015500031010008A0010020A0070020A003002006
:10156000A003002010B50446CC48844208D10121D4
:10157000042000F02DFB0021042000F029FB46E0B0
:10158000C748844208D10121082000F021FB002136
:10159000082000F01DFB3AE0C248844208D1012136
:1015A000102000F015FB0021102000F011FB2EE0B0
:1015B000BD48844208D10121202000F009FB002110
:1015C000202000F005FB22E0B848844208D1012128
:1015D000402000F0FDFA0021402000F0F9FA16E06A
:1015E000B348844208D10121802000F0F1FA0021A3
:1015F000802000F0EDFA0AE0AE48844207D10121D4
:10160000801500F0E5FA0021A01500F0E1FA10BD08
:1016100010B50121084600F0DBFA0021012000F09E
:10162000D7FA10BD2DE9F041024600250026002022
:1016300000230024002791F803C00CF00F0591F857
:1016400003C00CF0100CBCF1000F03D091F802C0E5
:101650004CEA050591F800C0BCF1000F31D01468C8
:1016600000202BE04FF0010C0CFA00F3B1F800C0A1
:101670000CEA03069E4220D183004FF00F0C0CFAB7
:1016800003F7BC4305FA03FC4CEA040491F803C0D9
:10169000BCF1280F06D14FF0010C0CFA00FCC2F887
:1016A00014C00AE091F803C0BCF1480F05D14FF017
:1016B000010C0CFA00FCC2F810C0401C0828D1D361
:1016C0001460B1F800C0BCF1FF0F34DD5468002095
:1016D0002EE000F1080C4FF0010808FA0CF3B1F805
:1016E00000C00CEA03069E4221D183004FF00F0C8C
:1016F0000CFA03F7BC4305FA03FC4CEA040491F826
:1017000003C0BCF1280F05D100F1080C08FA0CF851
:10171000C2F8148091F803C0BCF1480F07D100F162
:10172000080C4FF0010808FA0CF8C2F81080401CB1
:101730000828CED35460BDE8F0814FF6FF710180D8
:10174000022181700421C170704702460020936815
:101750000B400BB1012000E0002070470146886873
:1017600080B2704702460020D3680B400BB10120C5
:1017700000E0002070470146C86880B270470161F0
:101780007047416170470AB1016100E041617047F3
:10179000C16070474FF480320A4382618161826187
:1017A00082698269704702460020434B18684FF6F1
:1017B0008073184040EA021008433F4B186070479E
:1017C0003E49C8617047F0B50A4600230024002155
:1017D000002500F00046B6F1004F02D1364EF16907
:1017E00001E0354E7168C0F3034583B200F4401642
:1017F000B6F5401F08D121F070612F4E766826F0B3
:1018000070662D4F7E6012E000F48016B6F5801FE2
:1018100006D1032606FA05F4A14341F0706106E003
:10182000460D360103FA06F6B14341F0706122B16C
:10183000460D360103FA06F6314300F00046B6F1D4
:10184000004F02D11C4EF16101E01B4E7160F0BDF2
:1018500030B500228B071C0F0F2303FA04F2164B3E
:1018600008338C1053F824309343134C08348D10F4
:1018700044F8253023468C1053F824308C07240F6D
:1018800000FA04F423430C4C08348D1044F825303E
:1018900030BD0A49DC310860704700000008014093
:1018A000000C0140001001400014014000180140EC
:1018B000001C0140002001400000014000002042C7
:1018C000DF48006840F00100DD49086008464068D4
:1018D000DC490840DA49486008460068DA490840AF
:1018E000D74908600846006820F480200860084650
:1018F000406820F4FE0048604FF41F008860704785
:10190000CF49096821F48031CD4A11601146096838
:1019100021F480211160B0F5803F03D0B0F5802F15
:101920000ED106E0C649096841F48031C44A11600D
:1019300007E0C349096841F4A021C14A116000E0F1
:1019400000BF00BF704710B50146002200230020F1
:101950004A11012A02D1BA4C236806E0022A02D1B8
:10196000B74C236A01E0B64C636A01F01F02012400
:1019700094401C400CB1012000E0002010BD38B59F
:10198000002000900024002500BF3120FFF7DBFF7E
:1019900005460098401C00900098B0F5A06F01D05B
:1019A000002DF2D03120FFF7CEFF08B1012400E076
:1019B0000024204638BD01460020A14A106820F0CE
:1019C000F80040EAC10010607047A0490860704705
:1019D000024600209A4B586820F47C1042EA01032A
:1019E0001843974B586070479849086670470146FE
:1019F0000020934A506820F003000843506070476D
:101A00008F48406800F00C007047014600208C4A67
:101A1000506820F0F00008435060704701460020F5
:101A2000874A506820F4E0600843506070470146E0
:101A30000020834A506820F4605040EAC1005060A2
:101A4000704729B17E4A527A02437D4B5A7204E0B4
:101A50007B4A527A82437A4B5A7270477B49D8311B
:101A60000860704701460020754A506820F44040E5
:101A70000843506070470021714A20321170704A4B
:101A800082F82010012802D004280AD104E00121A4
:101A90006B4A2032117005E00521694A203211702D
:101AA00000E000BF00BF70476949086070476449A3
:101AB000096A0143624A1162704765494439086006
:101AC000704730B500210022002400235C4D6D6872
:101AD00005F00C0121B1042905D0082923D105E026
:101AE0005C4D056022E05B4D05601FE0544D6D6864
:101AF00005F47012524D6D6805F48034022505EB33
:101B000092421CB9544D554305600BE04C4D6D6835
:101B100005F400351DB1504D5543056002E04D4DB3
:101B20005543056002E04B4D056000BF00BF444DCA
:101B30006D6805F0F0010909484D6B5C0568DD40F2
:101B400045603F4D6D6805F4E061090A434D6B5CEB
:101B50004568DD4085603A4D6D6805F46051C90AFD
:101B60003E4D6B5C4568DD40C560354D6D6805F4E4
:101B70004041890B3A4D6B5CC568B5FBF3F50561D7
:101B800030BD29B12E4A526902432D4B5A6104E0FF
:101B90002B4A526982432A4B5A61704729B1284A1D
:101BA00092690243264B9A6104E0254A9269824376
:101BB000234B9A61704729B1214AD2690243204BD5
:101BC000DA6104E01E4AD26982431D4BDA61704734
:101BD00029B11B4AD2680243194BDA6004E0184A63
:101BE000D2688243164BDA60704729B1144A1269F1
:101BF0000243134B1A6104E0114A12698243104BED
:101C00001A61704712494039086070470F49C8642B
:101C100070470B49C87170470948406A40F08070AE
:101C200007494862704701460020054A92680A4009
:101C30000AB1012000E00020704701498872704716
:101C4000001002400000FFF8FFFFF6FE00004242D5
:101C50008004424200127A0000093D004E0000203C
:101C60005E00002010B50446FB48844209D10121E2
:101C70008803FFF7ADFF00214FF48040FFF7A8FF76
:101C800032E0F648844209D101214804FFF7ADFF54
:101C900000214FF40030FFF7A8FF25E0F048844210
:101CA00009D101218804FFF7A0FF00214FF4802013
:101CB000FFF79BFF18E0EB48844209D10121C804DB
:101CC000FFF793FF00214FF40020FFF78EFF0BE09A
:101CD000E548844208D101210805FFF786FF00216D
:101CE0004FF48010FFF781FF10BD2DE9F04786B05B
:101CF00005460E460024A24600BFA1460027B08933
:101D000000B100BF2F462C8A4CF6FF700440F088CB
:101D100004432C82AC894EF6F3100440B08831891C
:101D20000843718908430443AC81AC8A4FF6FF40F5
:101D30000440B0890443AC8201A8FFF7C2FEC64844
:101D4000874202D1DDF810A001E0DDF80CA0A889DF
:101D500000F4004040B10AEBCA0000EB0A10316801
:101D60004900B0FBF1F807E00AEBCA0000EB0A10EB
:101D700031688900B0FBF1F86420B8FBF0F0040191
:101D80002009642101FB1089A88900F4004040B1BA
:101D9000322000EBC900B0FBF1F000F00700044373
:101DA00008E0322000EB09106421B0FBF1F000F0F4
:101DB0000F0004432C8106B0BDE8F0874FF41651A4
:101DC000016000218180C18001810C2141810021BD
:101DD0008181704710B502460020108A4FF2FF0340
:101DE00018400B884C8823438C882343CC8823439A
:101DF0001843108210BD0021018041808180C18084
:101E0000704721B1828942F40052828104E08289C4
:101E10004DF6FF731A4082817047F0B503460024E7
:101E200000260025002040F66A17B94200D100BF05
:101E30001846C1F3421401F01F06012707FA06F500
:101E4000012C01D10C3004E0022C01D1103000E053
:101E500014301AB107682F43076002E00768AF43E8
:101E60000760F0BD1AB1838A0B43838202E0838A44
:101E70008B4383827047028A4FF6F0731A400282C6
:101E8000028A0A430282704782894FF2FF731A4026
:101E9000828182890A438281704721B1828942F01E
:101EA0000202828104E082894FF6FD731A4082812A
:101EB0007047028A4FF6DF731A400282028A0A4391
:101EC0000282704721B1028A42F48042028204E019
:101ED000028A4BF6FF731A4002827047C1F3080270
:101EE0008280704701468888C0F308007047818966
:101EF00041F0010181817047028BD2B20283028BD3
:101F000042EA012202837047028B02F47F4202837D
:101F1000028B0A430283704721B1828A42F0200279
:101F2000828204E0828A4FF6DF731A408282704711
:101F300021B1828A42F01002828204E0828A4FF646
:101F4000EF731A408282704721B1828A42F0080200
:101F5000828204E0828A4FF6F7731A4082827047C9
:101F600021B1828942F40042828103E08289C2F376
:101F70000E028281704721B1828A42F4006282821D
:101F800004E0828A4FF2FF731A4082827047828A8D
:101F90004FF6FB731A408282828A0A43828270471C
:101FA00021B1828A42F00202828204E0828A4FF6E4
:101FB000FD731A408282704702460020B1F5007F0F
:101FC00000D100BF13880B400BB1012000E00020BE
:101FD000704701F40072B2F5007F00D100BFCA4320
:101FE0000280704770B502460024002300250020BF
:101FF00040F66A16B14200D100BFC1F3421501F0AC
:102000001F03012606FA03F3012D02D196893340FE
:1020100006E0022D02D1168A334001E0968A334051
:102020000C12012606FA04F41688344013B10CB1E0
:10203000012000E0002070BD10B50022002340F612
:102040006A14A14200D100BF0A1201249440A3B235
:10205000DC43048010BD0000003801400044004013
:1020600000480040004C004000500040314901430E
:10207000314A1160704770B5002100230F22C478E7
:1020800004B32D4C246804F4E064C4F5E064210A30
:10209000C1F10403CA40447804FA03F1847814407F
:1020A00021430901254C0678A155047804F01F0549
:1020B0000124AC4005786D11AD0005F1E025C5F8AF
:1020C000004109E0047804F01F050124AC401C4DD8
:1020D0000678761145F8264070BD1A4A0A40024338
:1020E000154B1B1F1A60704739B1134A121D126835
:1020F0000243114B1B1D1A6006E00F4A121D1268A5
:1021000082430D4B1B1D1A607047042808D14FF005
:10211000E021096941F004014FF0E022116107E07C
:102120004FF0E021096921F004014FF0E022116134
:10213000704700000000FA050CED00E000E400E04C
:1021400080E100E080FFFF1F10B50446FE48844296
:1021500008D10121C014FFF73BFD0021E014FFF777
:1021600037FDC4E0B4F1804F08D101210846FFF7E4
:102170003CFD00210120FFF738FDB8E0F348844220
:1021800008D101210220FFF730FD00210220FFF7D6
:102190002CFDACE0EE48844208D101210420FFF779
:1021A00024FD00210420FFF720FDA0E0E94884423F
:1021B00008D101210820FFF718FD00210820FFF7B2
:1021C00014FD94E0E448844208D101211020FFF777
:1021D0000CFD00211020FFF708FD88E0DF48844255
:1021E00008D101212020FFF700FD00212020FFF76A
:1021F000FCFC7CE0DA48844208D101214014FFF75E
:10220000E7FC00216014FFF7E3FC70E0D54884424E
:1022100009D10121C804FFF7DBFC00214FF40020A5
:10222000FFF7D6FC63E0D048844209D101210805BC
:10223000FFF7CEFC00214FF48010FFF7C9FC56E0F9
:10224000CA48844209D101214805FFF7C1FC002199
:102250004FF40010FFF7BCFC49E0C548844208D1A8
:1022600001214020FFF7C1FC00214020FFF7BDFC09
:102270003DE0C048844208D101218020FFF7B5FC31
:1022800000218020FFF7B1FC31E0BB48844208D137
:1022900001218015FFF7A9FC0021A015FFF7A5FC7F
:1022A00025E0B648844209D101210804FFF790FCDB
:1022B00000214FF48030FFF78BFC18E0B0488442D7
:1022C00009D101214804FFF783FC00214FF40030BD
:1022D000FFF77EFC0BE0AB48844208D10121880463
:1022E000FFF776FC00214FF48020FFF771FC10BD52
:1022F00000220288944B98420ED0994B98420BD002
:10230000B0F1804F08D0914B984205D0904B984245
:1023100002D0904B984204D14FF68F731A404B88ED
:102320001A438D4B984207D08C4B984204D04FF6FD
:10233000FF431A40CB881A4302808B8883850B8821
:102340000385814B98420BD0854B984208D08B4B2C
:10235000984205D08A4B984202D08A4B984201D1CC
:102360000B7A038601238382704770B50024002214
:102370000023058C4FF6FE7635400584028C838859
:10238000048B4FF68F752C40B51E2C400D882C43C6
:10239000751E2A400D892A434D882A436A4DA8425A
:1023A0000BD06F4DA84208D0744DA84205D0744D93
:1023B000A84202D0734DA84213D14FF6F7752A40B8
:1023C0004D892A434FF6FB752A408D882A434FF6E4
:1023D000FF652B404FF6FF552B408D892B43CD8950
:1023E0002B4383800483CD888586028470BD70B5BD
:1023F000002400220023058C4FF6EF76354005843B
:10240000028C8388048B48F6FF752C404FF6FF45FD
:102410002C400D884FF6FF7606EA05252C434FF633
:10242000DF752A400D8906EA05152A434D8806EA1C
:1024300005152A43444DA84202D0494DA8421DD15A
:102440004FF67F752A404D894FF6FF7606EA05154F
:102450002A434FF6BF752A408D8806EA05152A43A0
:102460004FF6FF352B404FF2FF752B408D8906EA62
:1024700085052B43CD8906EA85052B43838004839C
:10248000CD880587028470BD70B50024002200232A
:10249000058C4FF6FF6635400584028C8388848B5B
:1024A0004FF68F752C404FF6FC752C400D882C4351
:1024B0004FF6FF552A400D894FF6FF7606EA0525AF
:1024C0002A434D8806EA05252A431F4DA84202D01B
:1024D000234DA8421DD14FF2FF752A404D894FF67A
:1024E000FF7606EA05252A434FF6FF352A408D88F8
:1024F00006EA05252A434EF6FF752B404DF6FF757B
:102500002B408D8906EA05152B43CD8906EA051572
:102510002B4383808483CD888587028470BD70B50A
:10252000002200230024058C4EF6FF7635400584FA
:10253000038C8488828B48F6FF752A404FF6FF454E
:102540002A400D8820E00000002C014000040040DB
:1025500000080040000C0040001000400014004043
:1025600000340140004C0140005001400054014043
:1025700000180040001C00400020004000400140C6
:1025800000440140004801404FF6FF7606EA052569
:102590002A434DF6FF752B400D8906EA05352B437E
:1025A0004D8806EA05352B43FA4DA84202D0FA4D74
:1025B000A84208D14BF6FF752C408D894FF6FF7667
:1025C00006EA85152C4384808283CD88A0F840508C
:1025D000038470BD828B4FF2FF331A408283828B5B
:1025E0004FF6FF7303EA01231A4382837047F0B565
:1025F0000C461546002200210026078C4EF6FF7C73
:1026000007EA0C070784828B018C4FF6FF7707EAF5
:10261000043640F6FF473A404FF6FF7707EA0527B2
:102620003A434FF6FF7707EA03373A43D94FB842A8
:102630000ED0D94FB8420BD0B0F1804F08D0D74F51
:10264000B84205D0D64FB84202D0D64FB84206D1D4
:102650004DF6FF77394046F48057394305E047F699
:10266000FF57394044F48057394382830184F0BDD9
:10267000828B4FF6F3731A408283828B0A438283E4
:102680007047F0B50C461546002200210026078C45
:102690004FF6FF6C07EA0C070784828B018C4FF61C
:1026A000FF7707EA04264FF60C773A404FF6FF779C
:1026B00007EA03172F433A43B64FB8420ED0B64F3E
:1026C000B8420BD0B0F1804F08D0B44FB84205D01B
:1026D000B34FB84202D0B34FB84206D14FF6FF57BE
:1026E000394046F48077394305E04FF2FF573940CF
:1026F00044F48077394382830184F0BD028B4FF22A
:10270000FF331A400283028B4FF6FF7303EA012363
:102710001A4302837047F0B50C461546002200218B
:102720000026078C4FF6EF7C07EA0C070784028B24
:10273000018C4FF6FF7707EA041640F6FF473A4050
:102740004FF6FF7707EA03373A434FF6FF7707EA7A
:1027500005273A438F4FB8420ED08F4FB8420BD067
:10276000B0F1804F08D08D4FB84205D08C4FB842A1
:1027700002D08C4FB84206D14FF6DF77394046F091
:102780001007394305E04FF65F77394044F01007F2
:10279000394302830184F0BD028B4FF6F3731A4074
:1027A0000283028B0A4302837047F0B50C4615463C
:1027B00000220021068C4FF6FE773E400684028BF5
:1027C000018C4FF60C7632407E1C06EA03162E432F
:1027D0003243704EB0420ED06F4EB0420BD0B0F1CB
:1027E000804F08D06D4EB04205D06D4EB04202D041
:1027F0006C4EB04206D14FF6FD76314044F00106F2
:10280000314305E04FF6F576314044F0010631439F
:1028100002830184F0BD70B505460C465D488542D3
:102820000ED05D4885420BD0B5F1804F08D05B4893
:10283000854205D05A48854202D05A48854200D187
:1028400000E000BF208850B92389A288618828460B
:10285000FFF7ABFFE1882846FFF79EFF25E02088C1
:1028600004280AD12389A28861882846FFF753FFEC
:10287000E1882846FFF742FF17E0208808280AD1A0
:102880002389A28861882846FFF7FBFEE188284655
:10289000FFF7EEFE09E02389A28861882846FFF74A
:1028A000A6FEE1882846FFF795FE70BD2DE9F041B0
:1028B00005460C4600260127608808B9022600E07C
:1028C0000026A088012801D1022700E001272088E6
:1028D000A0B92389A28861882846FFF766FFE188AE
:1028E0002846FFF759FF23893A4631462846FFF725
:1028F00012FFE1882846FFF701FF13E02389A28831
:1029000061882846FFF707FFE1882846FFF7F6FEB3
:1029100023893A4631462846FFF747FFE188284693
:10292000FFF73AFFBDE8F0810A884B881A438B888D
:102930001A43CB881A430B891A434B891A438B8954
:102940001A43A0F8442070474FF6FF7181800021A0
:102950000180C18041800172704700210180418067
:102960008180C180018141818181C18170470021C5
:1029700001804180012181800021C1800181704757
:102980000021018041808180C1800181418181815C
:1029900070470000002C014000340140000400405A
:1029A00000080040000C004021B1028842F0010202
:1029B000028004E002884FF6FE731A4002807047DE
:1029C00031B1B0F8442042F40042A0F8442005E0C0
:1029D000B0F84420C2F30E02A0F8442070471AB1A8
:1029E00083890B43838102E083898B438381704712
:1029F0008182704741EA0203A0F8483070471AB15B
:102A000083890B43838102E083898B4383817047F1
:102A100001894FF6F8721140018170470A46002182
:102A200001894FF68F73194011430181704730B50A
:102A300004460D4629462046FFF7F0FF208940F066
:102A40000700208130BD2DE9F04104460D461646B1
:102A50001F46602D06D13B46012231462046FFF736
:102A60005AFE05E03B46012231462046FFF79DFE17
:102A700029462046FFF7D2FF208940F00700208139
:102A8000BDE8F08130B50C4600210189C9B24FF68E
:102A9000FF7505EA0325154325432943018130BD10
:102AA0002DE9F04105460E46174698460024434658
:102AB0003A4631462846FFF7E5FF2C894FF6F87075
:102AC000044044F007044FF68F70044044F0700453
:102AD0002C81BDE8F081F0B504460D4616461F4630
:102AE0003B46324629462046FFF7CCFF208940F47A
:102AF00080402081F0BD0185828270470A46002116
:102B000001884FF68F731940114301807047F0B56B
:102B10000C4615461E460021002200230189028B27
:102B2000038C4FF6F877394021434FF6FC473A4083
:102B300040F201173A434FF6DD773B404FF6FF77FF
:102B400007EA06172F433B43018102830384F0BD4C
:102B50000A460021018B4FF68F7319401143018300
:102B600070470A460021018B48F6FF7319404FF663
:102B7000FF7303EA02231943018370470A460021C9
:102B8000818B4FF68F7319401143818370470A463A
:102B90000021818B48F6FF7319404FF6FF7303EA5B
:102BA000022319438183704721B1028842F08002D9
:102BB000028004E002884FF67F731A40028070475B
:102BC00021B1828842F00402828004E082884FF6BC
:102BD000FB731A408280704721B1828842F008025C
:102BE000828004E082884FF6F7731A408280704733
:102BF00021B1828842F00102828004E082884FF68F
:102C0000FE731A40828070470A460021018B4FF6FE
:102C1000F77319401143018370470A460021018B65
:102C20004FF2FF7319404FF6FF7303EA0223194373
:102C3000018370470A460021818B4FF6F7731940D4
:102C40001143818370470A460021818B4FF2FF7345
:102C500019404FF6FF7303EA02231943818370473B
:102C60000A460021018B4FF6FB7319401143018383
:102C700070470A460021018B4FF6FF3319404FF68B
:102C8000FF7303EA02231943018370470A460021B8
:102C9000818B4FF6FB7319401143818370470A46BD
:102CA0000021818B4FF6FF3319404FF6FF7303EA83
:102CB00002231943818370470A460021018B4FF696
:102CC0007F7319401143018370470A460021018B2D
:102CD000C1F30E014FF6FF7303EA02231943018388
:102CE00070470A460021818B4FF67F7319401143CC
:102CF000818370470A460021818BC1F30E014FF694
:102D0000FF7303EA02231943818370470A460021B7
:102D1000018C4FF6FD7319401143018470470A4638
:102D20000021018C4FF6F77319401143018470475D
:102D30000A460021018C4FF6DF7319404FF6FF73EE
:102D400003EA02131943018470470A460021018CEB
:102D50004FF67F7319404FF6FF7303EA02131943CE
:102D6000018470470A460021018C4FF6FF53194039
:102D70004FF6FF7303EA02231943018470470A46A2
:102D80000021018C4FF2FF7319404FF6FF7303EAE5
:102D900002231943018470470A460021018C4DF635
:102DA000FF7319404FF6FF7303EA0233194301849E
:102DB000704730B5002301248C40A3B2048C9C439F
:102DC0000484048C02FA01F5ADB22C43048430BDB6
:102DD00030B5002304248C40A3B2048C9C430484AB
:102DE000048C02FA01F5ADB22C43048430BD70B5F9
:102DF0000346002000241846183001258D40ACB24F
:102E00001D8CA5431D8409B1082909D100EB61007F
:102E1000056825F0700505600568154305600EE03E
:102E20000D1FC5F34E052844056825F4E0450560EF
:102E300005684FF6FF7606EA02263543056070BD49
:102E400021B1028842F00202028004E002884FF6BB
:102E5000FD731A400280704721B1028842F00402DB
:102E6000028004E002884FF6FB731A40028070472C
:102E700021B1828842F08002828004E082884FF68D
:102E80007F731A408280704702884FF6F7731A40AA
:102E9000028002880A430280704782884FF68F734F
:102EA0001A40828082880A438280704702894FF6E6
:102EB000F8731A40028102890A430281704702892D
:102EC0004FF67F731A40028102890A4302817047DC
:102ED000818470478185704781867047018770477C
:102EE00081877047A0F84010704702884FF6FF4373
:102EF0001A40028002880A43028070470146888E89
:102F000070470146088F70470146888F7047014619
:102F1000B1F8400070470146888C70470146088D23
:102F2000704702460020138A0B400BB1012000E0DD
:102F300000207047CA430282704730B50246002025
:102F400000230024158A05EA0103958905EA010496
:102F500013B10CB1012000E0002030BDCA43028251
:102F60007047000010B50446BE48844208D10121D4
:102F70008014FEF72DFE0021A014FEF729FE16E0B6
:102F8000B948844208D101210014FEF72EFE002129
:102F90002014FEF72AFE0AE0B448844207D101213A
:102FA000C013FEF722FE0021E013FEF71EFE10BD47
:102FB00010B50022028802F441520B884C8823434A
:102FC0008C882343CC8823430C8923434C89234397
:102FD0008C892343CC8923431A430280838B4FF28D
:102FE000FF74234083830B8A038210BD2DE9F04FC9
:102FF00085B005460C464FF0000902274FF0000847
:103000004FF0010B0026B246A88B4FF2400108405A
:10301000A88302202884B5F81C90A068022801D15A
:1030200000BF38E0A08810B94FF0010B01E04FF06D
:10303000020B8D48854200D100E000BF6846FEF7D4
:1030400040FDDDF800A0E088B0F5007F0AD14FEA2E
:103050001A2000EB80004000A168B0FBF1F0401D99
:1030600086B20BE04FEA4B10BAFBF0F000EB8000A9
:103070004000A168B0FBF1F0401D86B20A20B6FB0B
:10308000F0F606F00108A6EB0800C0F34F074FF674
:10309000FF7000EA0828022F01DBFF2F02DD022764
:1030A0004FF00008E08840EA080038432884A088F0
:1030B000A1890843618808432188084340F40060DF
:1030C00040EA0909A5F81C9005B0BDE8F08F002181
:1030D000018041808180C180018141818181C181E4
:1030E0000721018270470021018041808180C180D9
:1030F0000221816000218181704721B1028842F064
:103100004002028004E002884FF6BF731A4002803A
:10311000704721B1828B42F48062828304E0828B0B
:103120004FF6FF331A408283704730B500240023E6
:103130000C110125A540ABB21AB185881D438580CD
:1031400002E085889D43858030BD1AB183880B439A
:10315000838002E083888B4383807047818170473E
:103160000146888970474FF6FF62914204D0028879
:1031700042F48072028004E002884FF6FF631A4036
:103180000280704721B1828842F00402828004E00C
:1031900082884FF6FB731A408280704702884FF294
:1031A000FF731A40028002880A4302807047018838
:1031B00041F480510180704721B1028842F40052ED
:1031C000028004E002884DF6FF731A4002807047C7
:1031D00002460020012901D0108B00E0908A704740
:1031E0000146088A7047B1F5804F04D1028842F445
:1031F0008042028004E002884BF6FF731A4002808E
:1032000070470246002013890B400BB1012000E0FB
:1032100000207047CA4302817047F0B50246002083
:1032200000240023002501F00F070126BE40B4B2A0
:103230000B1101269E40B3B2968806EA0305168953
:10324000264016B10DB1012000E00020F0BD10B500
:10325000002201F00F040123A3409AB2D34303815B
:1032600010BD00000030014000380040003C00402C
:10327000704700000FB4044910B503AA029800F08B
:1032800005F910BC5DF814FB480000202DE9F04161
:103290000E460446002020622046E168884730B38D
:1032A000252805D0D4E901219047206A401CF2E787
:1032B000E168204600278847050018D0A5F14100A5
:1032C000192802D820354FF4006732462946204697
:1032D0002760FCF767FF40B1012804D0F61D26F0F7
:1032E00007060836D8E7361DD6E72846DAE7206A0B
:1032F000BDE8F0812DE9F0410646002410687529EB
:10330000314616A510D0AFF30080002802DA404203
:1033100013A507E031688A0701D512A502E0490725
:1033200004D511A5012401E0AFF3008000210A2299
:1033300006F1240709E0B0FBF2FCB0FBF2F302FB5C
:103340001C00303078541846491C0028F3D123461D
:103350002A463046BDE8F04100F03EB800000000CB
:103360002D0000002B0000002000000010B5203AC6
:10337000C0F00B80B1E81850203AA0E81850B1E82E
:103380001850A0E81850BFF4F5AF5FEA027C24BFE4
:10339000B1E81850A0E8185044BF18C918C0BDE8DB
:1033A00010405FEA827C24BF51F8043B40F8043BA4
:1033B00008BF7047D20728BF31F8023B48BF11F859
:1033C000012B28BF20F8023B48BF00F8012B7047B3
:1033D00070477047704770472DE9F0470D46994692
:1033E0009246044600F124080168880604D5E06985
:1033F00021F01001216000E00120A84201DD471BFF
:1034000000E00027A1697A1902EB0900081AA061FF
:103410002078C00602D42046AFF30080002608E0E2
:10342000D4E901211AF806009047206A401C761C56
:1034300020624E45F4DB2078C0060AD52046AFF363
:10344000008006E0D4E9012130209047206A401C2A
:103450002062381EA7F10107F4DC07E0D4E901215E
:1034600018F805009047206A401C2062281EA5F12C
:103470000105F3DC2046AFF300802078000602D57A
:103480000220BDE8F0870120FBE70000074B70B584
:103490000D467B4400F011F80446284600F020F861
:1034A00010B14FF0FF3070BD204670BD55DFFFFFFB
:1034B00001694A1C02610878704700B58FB0CDE9F8
:1034C00001310021059105497944CDE903101146E8
:1034D0006846FFF7DBFE0FB000BD0000E5FFFFFF11
:1034E000007B00F080007047754600F029F8AE467A
:1034F00005006946534620F00700854618B020B500
:10350000FEF71EF8BDE820404FF000064FF0000720
:103510004FF000084FF0000B21F00701AC46ACE87B
:10352000C009ACE8C009ACE8C009ACE8C0098D46E8
:1035300070470446AFF300802046FCF745FE0000CC
:103540000048704740010020683500080000002056
:10355000640000006C010008CC3500086400002005
:103560003C07000088010008000000000000000087
:1035700000A24A0400000000000000000102030451
:1035800006070809F1F3F2F6F4FCF8F9F9F8FCF48F
:10359000F6F2F3F1000000000000000034431010C8
:1035A0000134431010020000000000000000000081
:1035B00000000000000000000000010203040102FE
:0C35C000030406070809020406080000C6
:0400000508000131BD
:00000001FF
